:020000021000EC
:10F000000000012065BB02008DBB02008FBB020027
:10F0100091BB020093BB020095BB02000000000000
:10F0200000000000000000000000000097BB02008C
:10F0300099BB0200000000009BBB02009DBB0200C8
:10F04000512D02009FBB0200493B020085360200A1
:10F050009FBB02009FBB0200B13102009FBB0200B8
:10F060009FBB02009FBB02009FBB02009FBB020030
:10F070009FBB02009FBB02009FBB02009FBB020020
:10F080009FBB0200010002009FBB02009FBB020069
:10F09000C50002009FBB020059D102009FBB0200C5
:10F0A0009FBB02009FBB02009FBB02009FBB0200F0
:10F0B0009FBB02009FBB0200000000000000000098
:10F0C0009FBB02009FBB02009FBB02009FBB0200D0
:10F0D0009FBB02009FBB02009FBB0200000000001C
:10F0E0000000000000000000000000000000000020
:10F0F0000000000000000000000000000000000010
:10F1000000000000000000000000000000000000FF
:10F1100000000000000000000000000000000000EF
:10F4000010B5054C237833B9044B13B10448AFF35E
:10F4100000800123237010BDD021002000000000D7
:10F420001CE00200084B10B51BB108480849AFF3B7
:10F4300000800848036803B910BD074B002BFBD0C0
:10F44000BDE81040184700BF000000001CE00200AB
:10F45000D4210020BC21002000000000154B002B0F
:10F4600008BF134B9D46A3F5803A00218B460F46FB
:10F470001348144A121A00F065F80F4B002B00D005
:10F4800098470E4B002B00D0984700200021040025
:10F490000D000D48002802D00C48AFF3008000F0AA
:10F4A0002BF82000290005F0FBFE00F011F800BF4A
:10F4B0000000080000000120000000000000000023
:10F4C000D0210020FC3400200000000000000000DB
:10F4D00008B5074B044613B10021AFF30080054B7C
:10F4E0001868836A03B19847204600F033F800BFDC
:10F4F00000000000E8DA020070B50E4B0E4CE41A72
:10F50000A41000251E46A54204D056F82530984781
:10F510000135F8E70EF0DAFA084C094BE41AA410AA
:10F5200000251E46A54204D056F8253098470135DF
:10F53000F8E770BDB4210020B4210020B8210020DC
:10F54000B421002002440346934202D003F8011B79
:10F55000FAE77047FEE700BF0378012B04BF014ABA
:10F5600013707047EC2200202DE9F04FC5B0914890
:10F570004F9F16461C460D46002914BF4FF00A0B3C
:10F580004FF0000B04F0D4FA002840F0E280002C89
:10F5900000F0E38004AB02460193519B4F97FE18A5
:10F5A0002025104600EB0B03019A03933133D31847
:10F5B00002931318BBF1000F60D05A4202F003020D
:10F5C0005A4528BF5A46BBF1060F00F2E5805A465D
:10F5D0000199012A0D5403F1010100F0DB80022A98
:10F5E0005D7003F1020100F0D580032A9D7003F1E4
:10F5F000030100F0CF80042ADD7003F1040100F064
:10F60000C980062A1D7103F1050140F0CB805D71B0
:10F61000991D9446934530D0C2EB0B09A9F1040E15
:10F620000BF1FF3A4FEA9E0EC2EB0A0A0EF1010EF1
:10F63000BAF1020F4FEA8E0814D90244019F4FF02D
:10F640002030BEF1010F07EB020AB85006D0BEF120
:10F65000020FCAF8040001D0CAF80800C8454144A6
:10F66000C4440AD00CF1010293450D7005D90CF188
:10F67000020CE3454D7000D98D705B444E4A0299EF
:10F68000D2F800804F9FDDF84091DA1C481C03F14E
:10F69000330C0CE002F8035C02F8025C02F8015C37
:10F6A0000332624500F8015C00F1010033D0A6424C
:10F6B000F0D9A74295BFE11B4E9919F80110095DD9
:10F6C00002F8015C4FEA211E5FFA8EFABEF1090FC3
:10F6D00001F00F0ED4BF0AF1300A0AF1370ABEF169
:10F6E000090F02F803AC94BF0EF1300E0EF1370E85
:10F6F00008EB010A02F802EC9AF801E003321EF06E
:10F70000970F08BF2E21624500F8011C04F1010487
:10F7100000F10100CBD1039A4F97029F274802F1D5
:10F7200043080A210D223A7479744246019983F8FC
:10F7300030500DF089FD5FFA88F21E481F4904F031
:10F740003DF930B91B4804F0F3F910B9A6423FF671
:10F7500029AF204645B0BDE8F08F35B304A82B682B
:10F76000174A01904FF480710DF07AFD0028F0DB0C
:10F77000054630460DF0AEFD019BC22828BFC220D1
:10F7800002468046314658190DF05EFD08EB050330
:10F790001A4602E794463DE7002A7FF419AF19465E
:10F7A000944639E74FF0050C34E704AB2546019346
:10F7B000DFE700BF8C210020B0210020EC210020D9
:10F7C0000CDB02002DE9F0415C48C6B00C46174640
:10F7D0001D4604F0ADF9002831D1002C33D006AE1F
:10F7E0002368574A30464FF480710DF039FD0028E8
:10F7F00025DB4C9B0446062B00F29E80DFE803F0DD
:10F800007887915B6947050006AE2A1D92E80411CE
:10F8100029692B686D6904950092039130193A4665
:10F82000CDF80480CDF808C0C4F580710DF018FD46
:10F830000546002D03DB2C44B4F5807F18D9002049
:10F8400046B0BDE8F0814C9B0024062B10D801A2E5
:10F8500052F823F0F1F801000DF9010021F901003F
:10F86000B5F80100D1F801008DF8010009F8010098
:10F8700006A9224633480DF0E7FCE2B22F48314991
:10F8800004F09CF8B0FA80F04009D9E706AE6A6847
:10F89000E9682B68D5F808C02D690395009202919C
:10F8A00030193A46CDF804C0C4F580710DF0D8FC8B
:10F8B0000546BEE706AE6A68A9682B68009201910A
:10F8C00030193A46C4F580710DF0CAFC0546B0E720
:10F8D00006AE6A68A9682B68ED68029500920191EE
:10F8E00030193A46C4F580710DF0BAFC0546A0E720
:10F8F00038460DF0EFFC0319FF2B054699D806ABEF
:10F90000394618192A460DF09FFC92E706AE2B687F
:10F9100030193A46C4F580710DF0A2FC054688E71F
:10F9200006AE6A682B68009230193A46C4F58071B9
:10F930000DF096FC05467CE700257CE78C21002035
:10F940000CDB0200EC210020F0B51A4F3B7889B0A7
:10F9500006461BB1184B1B78834228D0174D0FCD9C
:10F960006C460FC495E80F004FF0000E84E80F00BE
:10F9700006251F2107224FF0EB7311480391052440
:10F9800002928DF814E000950194069303F090FF25
:10F99000002E0C4A0A4818BF0022694603F09AFE5E
:10F9A00018B9054A012316703B7009B0F0BD00205C
:10F9B00009B0F0BDEE220020ED220020ECDA0200BA
:10F9C0008C21002059F5010000487047C5F701005F
:10F9D0000048704769F5010038B50020FFF7B4FF13
:10F9E000044668B9FFF7F0FF0546FFF7F1FF054B46
:10F9F000FF22C3F810541C605C60C3F814049A60C2
:10FA0000204638BDF02200200120FFF79DBF00BF37
:10FA10002DE9F04383B002AB4FF0000903F8019DDC
:10FA2000254C074618460E46A56800F0B9FFA268A7
:10FA30006368D4F8008013440133C8EB0303012B3F
:10FA400007D80BBB9DF8070000F0D2FF03B0BDE85C
:10FA5000F08308F101039DF80700236000F0C8FF60
:10FA60000122002362F3010369F3820308EA05051A
:10FA700067F3C50304EB850469F3891366F39F23D9
:10FA8000E36003B0BDE8F08301214B4661F301035D
:10FA900069F38203052161F3C50302EA08020749FD
:10FAA00004EB820269F3891308F1010561F39F23D6
:10FAB0002560D360C6E700BFF022002014DB0200FF
:10FAC0002DE9F04782B002AB4FF0000903F8019D29
:10FAD000DFF8B4800746184615460E46D8F80840A9
:10FAE00000F05EFFD8F80820D8F80430D8F800A05D
:10FAF00013440133CAEB0303022B07D853BB9DF811
:10FB0000070000F075FF02B0BDE8F0870AF10203BC
:10FB10009DF80700C8F8003000F06AFF01220023BA
:10FB200062F301030AEB020169F3820367F3C50381
:10FB30000AEA040A0C4008EB8A0A62F3891308EB0C
:10FB4000840866F39F23CAF80C30C8F80C5002B042
:10FB5000BDE8F08701214B4661F3010369F382039D
:10FB6000052161F3C50302EA0A02064808EB820296
:10FB700069F389130AF1010160F39F23C8F80010AB
:10FB8000D360BCE714DB0200F02200202DE9F04F27
:10FB900083B002AE4FF0000A06F801AD314C814649
:10FBA000304617461E46A568884600F0F9FEA26852
:10FBB0006368D4F800B013440133CBEB0303042B88
:10FBC00007D8BBBB9DF8070000F012FF03B0BDE8EB
:10FBD000F08F0BF104039DF80700236000F008FF8D
:10FBE0000122002362F301036AF382030BEB02019B
:10FBF0000BF1030E0BF1020269F3C50303200BEABC
:10FC0000050B04EB8B0B60F3891368F39F232940EA
:10FC10002A400EEA0505CBF80C3004EB810104EB19
:10FC200082020C9BCF6004EB8504D660E36003B0D6
:10FC3000BDE8F08F0121534661F301036AF38203AB
:10FC4000052161F3C50302EA0B02074804EB8202B7
:10FC50006AF389130BF1010160F39F232160D360E4
:10FC6000B0E700BFF022002014DB02002DE9F047CE
:10FC70004C4E96E80C0093428AB070D0B06804E015
:10FC8000C4F3891202EB9452134400EA03050235CF
:10FC900006EB85020133546814F00302F0D0022A07
:10FCA00028D0C4F38312C4F3952C002A75D00DF12B
:10FCB000100E75469F1803EA000106EB810101331F
:10FCC000C96845F8041BBB42F5D10092C4F3C200D9
:10FCD00062467346D6F81044324D0021A04738B131
:10FCE00077603068C01B18BF01200AB0BDE8F087FC
:10FCF0006F68F6E703F1010A20EA0A0103400131C7
:10FD000006EB830389004FEA94588845DA68DFF8E8
:10FD100094E0C4F3891326D9A9B30AEA000C5FFA68
:10FD200081F90EEB8C0CC9EB08010CF10C0C0EF1F7
:10FD30000C00C9B202900391CDF800C0CDF8049038
:10FD4000C4F3C2000021D6F81474B847404520D04F
:10FD500006EB850560F38F146C607768C1E70020BF
:10FD60000AB0BDE8F08700EA0A000EEB80000C3014
:10FD70008DE801010021DEF814C402910391C4F35F
:10FD8000C200E047E2E70EF10C0C08465FFA88F982
:10FD9000D0E703300AEB9007A2E71F460DF1100EE3
:10FDA00093E700BFF02200202DE9F84F234B1A788B
:10FDB0008AB3DFF88CB0DFF88C80DFF88C900024F9
:10FDC0004FF0010A03E00134E4B2944223D226B298
:10FDD000D8F80050DBF8003015F836000AFA00F1C8
:10FDE000194205EBC607EED0154A23EA010313605A
:10FDF00003F0D4F915F83650D9F800300AFA05F1B5
:10FE00000B4000FA05F18B4207D00C4B01341A78F5
:10FE1000E4B29442DBD3BDE8F88F79787B68A1F136
:10FE20000101B1FA81F14909002BEED0091A2846E7
:10FE3000B1FA81F149099847E7E700BF1027002090
:10FE4000382700200C2700203427002070B50646F4
:10FE5000114800F067FD40B9104D01242B68B440F3
:10FE60001C4203D023EA04042C6070BD304603F02A
:10FE700095F90B4E326860B122432B680949326014
:10FE80001C432C60044809680022BDE8704000F063
:10FE9000F1BC22EA0402F0E71427002038270020F2
:10FEA0003427002008270020F0B5042A85B0174623
:10FEB00002D8072005B0F0BD0191054603F038F8DF
:10FEC0000199002830D01C4CDFF888E01B481C4A00
:10FED0001C4B256000264C1E07608EF80010166033
:10FEE0001E60E4B2032709B918E01C4623B205EBF3
:10FEF000C30215F833009378134A8DF80D3003A927
:10FF00008DF80C708DF80E608DF80F6003F01AF804
:10FF1000631E0028CED1DBB2002CE6D10B4A0C4880
:10FF2000002100F095FCC5E7019102F0BFFF0199A7
:10FF30000028C8D0BEE700BF0C27002008270020FB
:10FF400034270020382700204DFE0100A9FD0100C4
:10FF500020DB02001027002070B5084D2B785BB124
:10FF6000074E00243368012113F8340003F0B4F87D
:10FF70002B780134A342F5D8002070BD1027002053
:10FF80000C27002000B585B0ADF804100292039054
:10FF9000002144F2010001AA00F014F805B05DF858
:10FFA00004FB00BF00B585B000230390194644F25E
:10FFB000010001AAADF80430029300F003F805B087
:10FFC0005DF804FB08B501200A49FFF721FDFFF7A2
:10FFD0001BFDFFF74BFE0028FBD1BFF34F8F0649F7
:10FFE000064BCA6802F4E0621343CB60BFF34F8F45
:10FFF00000BFFDE724DB020000ED00E00400FA058D
:020000022000DC
:100000002DE9F041274A284B0025C2F84051C2F89B
:100010004451C2F84851C2F84C51C2F80051C2F8DC
:1000200004511B681BB32149D2F804250C68204FEA
:10003000141B1A6824F07F44A242A84609D8197CF0
:10004000DE69A41A1544A1B91EB133461A68A2424A
:10005000F5D9184B18491A780B789A421BD01749D2
:10006000174A41F823504FF48013C2F80031BDE81D
:10007000F081D3F814C083F810803A689B69604619
:1000800019462AB190470028DED0FFF78BFFDBE747
:100090001846E047D8E7531CDBB2022B08BF002309
:1000A0000B70DCE700100140402700203C270020B7
:1000B00044270020482700204927002054270020FB
:1000C00000E100E02DE9F04F894A8A491378097868
:1000D0008948994287B0D0F8009000F01682013329
:1000E000DBB2022B08BF00231370844A52F823703E
:1000F000814A07EB090323F07F4313604FF0010AA5
:100100007F4BCDF80C90D3F800807E4B19785B784C
:1001100001931E467B4B5C6893F802E07A4B93F8A0
:1001200000B0754B1B680293424643460020BC4614
:10013000B14217D001EB4105013114F83570C9B255
:10014000714508BF0021022F04EBC50577D0032FAE
:10015000EED1002BECD0DA6918741346002AFAD1DC
:10016000B142E7D1664902980A606349DDF80C9014
:1001700008606549674681F800B0BAF1000F40F0A9
:10018000A481B8EB030218BF0122059203935546E0
:100190001E46594BDFF87491D3F800C0584BD3F882
:1001A00000A0584BD3F804B09B780293554B93F8BA
:1001B00000E0554B1B78049300274FF0010835B33E
:1001C0006968A8682C46ED69CCEB010222F07F42F9
:1001D0004A4556D8131823606760A76084F81080DA
:1001E000E761002E7FD0316899425CD2304603E04F
:1001F000116899425ED21046C2695B1A002AF7D193
:100200002360E2613346C4611E46002DD8D1019BB4
:100210009E457DD00EEB4E020BEBC2030EF1010E9C
:100220001BF8322002995C685FFA8EFE8E4508BF8B
:100230004FF0000E012A44D033461E46E5E7D5F8BC
:100240000490002B3FF474AF4B4500F039811F46FA
:1002500000E02F46FD69002D3FF46AAFA945F8D1B3
:10026000B946A9452F4600F02B81FD693F68C9F8C2
:100270001C50002D3FF45CAF2B683B442B601346B1
:1002800056E7C1EB0C0121F07F41814202D2431AB3
:100290002360A1E727606760A76084F81080E761AA
:1002A0000EB331680023CB1A33602346E661A246C1
:1002B0001E46AAE7C91A11602360E2613346C46191
:1002C000A2E7227C002AB7D199686160D868A06053
:1002D0001A69E2605B69A361049B002B3FF474AF71
:1002E0006560294670E72346A2461E468DE700BF9B
:1002F00048270020492700203C27002054270020C1
:10030000402700204C2700204A270020FEFF7F00C6
:10031000854B83F800E0854BC3F800A0039BB342F4
:1003200000F0C480002E00F01181814C814BD4F884
:1003300004051B68804DD6F800C02978C21A22F047
:100340007F420332002952D17C4FDFF8F491DFF86D
:10035000F4814FF480314FF4003E0126C4F8441379
:10036000C4F80413C7F880E1C7F800E026602F2125
:10037000D9F8004000BF00BF00BF00BF00BF00BFF2
:1003800000BF00BF44452FD000BF00BF00BF00BF6B
:1003900000BF00BF00BF00BF00BF00BF00BF00BF65
:1003A00000BF00BF00BF00BF00BF00BF00BF00BF55
:1003B00000BF00BF00BF00BF00BF00BF00BF00BF45
:1003C00000BF00BF00BF00BF00BF00BF00BF00BF35
:1003D00000BF00BF00BF00BF00BF00BF00BF00BF25
:1003E00000BF00BF00BF00BF0139C3D12E706245FE
:1003F0002CBF9A1803EB0C024D4922F07F43C1F841
:100400004035D1F80425121A1B1A22F07F4223F03E
:100410007F4303329A424DD9D1F80435484AC1F896
:100420004035126847492F2300BF00BF00BF00BFFF
:1004300000BF00BF00BF00BF8A422FD000BF00BF77
:1004400000BF00BF00BF00BF00BF00BF00BF00BFB4
:1004500000BF00BF00BF00BF00BF00BF00BF00BFA4
:1004600000BF00BF00BF00BF00BF00BF00BF00BF94
:1004700000BF00BF00BF00BF00BF00BF00BF00BF84
:1004800000BF00BF00BF00BF00BF00BF00BF00BF74
:1004900000BF00BF00BF00BF00BF00BF013BC3D112
:1004A000264B4FF40032C3F8002103E0059B002BDC
:1004B0007FF438AF244A0023137007B0BDE8F08FF3
:1004C000DA6942B313464F46CFE6002528462C464C
:1004D000A3B11968B9421BD8DA681C607F1A0844B6
:1004E000D9693AB100EB090626F07F46DD619A60D2
:1004F0005E601D460B460A46002BEAD10B4903936A
:1005000001230A600593039E43E60027BA46F7E5F8
:10051000C91B1960F2E7064B01259D604F46134643
:100520000292AB46A1E600BF4C27002040270020E6
:10053000001001403C2700205C27002000E100E083
:10054000AC2100200024F4004A270020484A494BEF
:10055000494D4A484FF480314FF400370124C3F825
:100560008070C2F848132F23C2F80813546029681A
:100570001D4600BF00BF00BF00BF00BF00BF00BFDF
:1005800000BF81422FD000BF00BF00BF00BF00BF2F
:1005900000BF00BF00BF00BF00BF00BF00BF00BF63
:1005A00000BF00BF00BF00BF00BF00BF00BF00BF53
:1005B00000BF00BF00BF00BF00BF00BF00BF00BF43
:1005C00000BF00BF00BF00BF00BF00BF00BF00BF33
:1005D00000BF00BF00BF00BF00BF00BF00BF00BF23
:1005E00000BF00BF00BF013DC3D19460244A166024
:1005F00000BF00BF00BF00BF00BF00BF00BF00BF03
:1006000081422FD000BF00BF00BF00BF00BF00BFAE
:1006100000BF00BF00BF00BF00BF00BF00BF00BFE2
:1006200000BF00BF00BF00BF00BF00BF00BF00BFD2
:1006300000BF00BF00BF00BF00BF00BF00BF00BFC2
:1006400000BF00BF00BF00BF00BF00BF00BF00BFB2
:1006500000BF00BF00BF00BF00BF00BF00BF00BFA2
:1006600000BF00BF013BC3D1064B1E7022E700BF95
:100670000010014000E100E0AC2100200024F40063
:100680003C2700205C2700202DE9F04F12F00304E6
:1006900002D00720BDE8F08F002AFAD0614D624EEB
:1006A000DFF88CC1DFF88C814FF4803E4FF40037C7
:1006B0004FF00109C6F88070C5F848E32F27C5F848
:1006C00008E3C5F80490DCF800C0BE4600BF00BFD8
:1006D00000BF00BF00BF00BF00BF00BFC4452FD098
:1006E00000BF00BF00BF00BF00BF00BF00BF00BF12
:1006F00000BF00BF00BF00BF00BF00BF00BF00BF02
:1007000000BF00BF00BF00BF00BF00BF00BF00BFF1
:1007100000BF00BF00BF00BF00BF00BF00BF00BFE1
:1007200000BF00BF00BF00BF00BF00BF00BF00BFD1
:1007300000BF00BF00BF00BF00BF00BF00BF00BFC1
:10074000BEF1010EC2D1DFF8F0E0C5F80890CEF896
:10075000004000BF00BF00BF00BF00BF00BF00BF20
:1007600000BFC4452FD000BF00BF00BF00BF00BF07
:1007700000BF00BF00BF00BF00BF00BF00BF00BF81
:1007800000BF00BF00BF00BF00BF00BF00BF00BF71
:1007900000BF00BF00BF00BF00BF00BF00BF00BF61
:1007A00000BF00BF00BF00BF00BF00BF00BF00BF51
:1007B00000BF00BF00BF00BF00BF00BF00BF00BF41
:1007C00000BF00BF00BF013FC3D1DFF870C0DFF83A
:1007D00070B0164FDFF86CA0DFF86C90DFF86C801B
:1007E0008CF80040CBF800304FF4801CE023B97047
:1007F0003C707C70CAF8004089F8004088F80040DE
:10080000C6F880C186F81433C6F800C0C5F80805DC
:1008100086F81133D5F80435CEF800307A602046DA
:10082000BDE8F08F0010014000E100E04C270020FF
:10083000AC2100200024F4003C2700205C2700208D
:100840004427002040270020482700204927002077
:10085000074B5B6823B12AB120B10368187C18B13B
:10086000082070470720704759745A61704700BFCD
:100870004C2700202DE9F043274C636883B033B147
:1008800028B1042907D8072003B0BDE8F083082069
:1008900003B0BDE8F0834369002BF8D0054602A8F9
:1008A0006B7C0026012B00F8016D0CBF8946B14618
:1008B00090460F4600F074F86378A07821785A1CAF
:1008C000D2B2904208BF324691421FD003EB43039D
:1008D0006068DB00C11819D04FF0010E00F803E08A
:1008E0000E4B4D60D3F804358B609DF80700CF6048
:1008F000C1F81090C1F81480627000F079F8084BCC
:100900004FF480123046C3F80021C1E79DF807007C
:1009100000F06EF80420BBE74C27002000100140D7
:1009200000E100E0F0B51C4D6B6883B053B348B3F1
:1009300043693BB3044602A8002600F8016D267403
:1009400000F02EF86B78A87829785A1CD2B2904221
:1009500008BF3246914218D003EB43036968DB00BD
:10096000CF1812D00220C8547C609DF807006A702E
:1009700000F03EF8094B4FF480123046C3F80021D6
:1009800003B0F0BD082003B0F0BD9DF8070000F0F3
:100990002FF80420F7E700BF4C27002000E100E01B
:1009A000F0B4EFF3108472B60E4B9A68B2B90E49E8
:1009B00001259D60D1F880700C4D2E463D401D6094
:1009C000C1F88060D1F884505D604FF0FF33C1F80A
:1009D0008430027004B962B6F0BC70470123037022
:1009E000F8E700BFEC34002000E100E0FC06FFBCAB
:1009F000094B9A6872B168B910B4EFF3108272B6FD
:100A000006491C680C605C684C60986002B962B66C
:100A10005DF8044B704700BFEC34002000E100E0BB
:100A2000033080B240F2FD33984201D9092070476B
:100A300030B4124B1C783CB95D891A892A440244AF
:100A400092B2B2F5806F10D31A7C0C4C12B1072011
:100A500030BC7047658B228B2A44024492B2B2F5B7
:100A6000806FF4D20124224600E0224603EB0213F9
:100A70000C805A89104458810020E9E7B8270020EB
:100A8000F0B543684BB1304A1468A34205D35268AD
:100A9000934202D813F0030234D00023DFF8B0E011
:100AA0000B804FF0010C4FF6FF75DEF80470002349
:100AB00007F58054C3B15A88033203EB8203A34283
:100AC00016D21A68013213D09A881E88AA42F2D030
:100AD000002EF0D09E6802689642EBD11B4A43601C
:100AE000138903810120F0BD07F10803A342E8D375
:100AF000BCF1020FA1F800C00EF1100E21D04FF092
:100B0000020CD2E7114C05892489A542C5D105689C
:100B10009C68A542C1D10E4C6068834205D900F59E
:100B20008050834201D2134608E06269934208D99B
:100B300002F58052934238BF012302D20B8001207C
:100B4000F0BD0020F0BD00BFC0210020D82700204C
:100B5000B82700202DE9F04FAF4C256FEF007E1B2A
:100B6000B6008FB0A15D4A1E034604EB060BA046FB
:100B7000052A00F2FD80DFE802F05130301D1D0330
:100B8000002B59D1DFF8A89299F80C20002A00F028
:100B9000628399F8002089F80C30531E062B00F26E
:100BA000E680DFE813F01703AD0291016C01E40069
:100BB0009A02EB02002B40D1C5EB070904EB89092F
:100BC00099F80420012A00F0B183C0F09983022A29
:100BD00040F0CE8000230A9337E07A1B04EB8202B8
:100BE00002F10800DFF84CE2B0F80A900EEB0919A8
:100BF000002B40F0AC80037AD9F80420B9F8080043
:100C000002EB8002062B00F2A683DFE813F07501E9
:100C1000CE01AE011B020102EE01AB01002B40F040
:100C20008E809BF80430032B00F24C84DFE813F035
:100C30001A010601E400B2000621012318F806207B
:100C40000A93931E012B40F29B800139052907D896
:100C5000DFE801F02D664F3E310305238DF8243087
:100C60006E4D05F1200655F8043F0BB109A89847D1
:100C7000B542F8D1206F684DC0EBC00004EB800096
:100C800000211C22FEF75EFC636F43B12A6F013224
:100C9000013B02F003026B672A67002B6AD1604AAE
:100CA000137823F0040313700FB0BDE8F08F002316
:100CB0008DF82430D4E77B1B04EB83030422DB880C
:100CC000ADF8303000238DF82420ADF83230C7E77E
:100CD0007B1B04EB83031A46DB8832F8081FADF850
:100CE000303053680B930323ADF832108DF8243065
:100CF000B6E77B1B04EB83031A7C1889DD689988AF
:100D00000B95A2F106030222B3FA83F35B098DF877
:100D10003430ADF83000ADF832108DF824209FE764
:100D20007B1B04EB8303012218899988DB68ADF8EB
:100D30003000ADF832100B938DF8242090E7384A3C
:100D40001378012123F0010313700B4676E7D08856
:100D5000B9F80A30B9F8082000F1030E1B1A033B5A
:100D60007244A9F80A30A9F80820012366E7062191
:100D70000F2363E70020FFF7EDFE0FB0BDE8F08F13
:100D8000284B9BF81660186C5A6C3044921B186400
:100D90005A645AE7DFF8A090234AD9F80010234894
:100DA0004FF0000A0223CDF800A001F075FB204BA4
:100DB000DFF880C05B88D9F80010B9F804E08BF840
:100DC00004A01B010CEB03020CF803A05368C9F844
:100DD000003002235160A2F808E0A9F8043000288E
:100DE0003FF462AF7B1B14F823100D4A137823F0F5
:100DF000010313700E2321E7DFF83C900B48D9F86C
:100E000000100122002301F091FB02220023A9F827
:100E100004208BF80430E2E7E8270020682800204F
:100E2000682800206027002048DB0200C021002045
:100E3000D8270020B827002060280020C44B039347
:100E400019461B78022B00F03A830B7C022B00F032
:100E50002283C04A137843F0020323F00103137086
:100E60000121B7E6BC4BBD481968BD4A0023009379
:100E7000022301F011FB01238BF80430AFE7B9F82E
:100E80000220B34BDFF8EC9203EB02129389002BA4
:100E900000F0C182DFF8C0E2B048DEF800104FF089
:100EA000050C00234FF0020A0122AEF804A089F8D5
:100EB00000C001F03BFB0346002B3FF4F5AE1C22C3
:100EC00002FB05F2A15CB9E6D9F80420A2495388D7
:100ED000B1F804C00968A1484FF0000ECDF800E059
:100EE00003334FF0030E9BB201EB8C0189F800E055
:100EF00001F0D2FA0346DFE7C5EB070A4FEA8A0A98
:100F000004EB0A0C0023114600930CF104020123A8
:100F10009248CDF80CC001F0BFFADDF80CC00223F6
:100F20008CF8103000283FF4BFAE8E4B13F80A1037
:100F30000E23781B04EB8000B9F80A20B0F806E015
:100F4000B9F808000EF1030CCEEB020241F61D5E6B
:100F50006044033A7345A9F80800A9F80A203FF451
:100F600039AE6BE641F61D53E3E7C5EB070A4FEADE
:100F70008A0A04EB0A00002302F10801009300F141
:100F80000C020123754801F087FA04EB0A03754946
:100F90009A7D002A14BF032201221A7400283FF40C
:100FA00083AE11F80A100E23C3E77B1B4FEA830CB4
:100FB00004EB0C0A0AF1080A0023111D00935246A3
:100FC00001236648CDF80CC001F066FADDF80CC0CC
:100FD00014F80C1003290CBF052306238AF80830E7
:100FE00000283FF461AE0E23A3E75F4B5B485968CE
:100FF0005E4A00230093012301F04EFA002800F01E
:1010000027827B1B9B00E2180620E15C1074EAE754
:101010007B1B4FEA830A04EB0A01534B8969196071
:101020004FF0000E184609A90392C3F804E0FFF739
:1010300027FD039A00287FF45FAF4A4B13F80A108C
:101040000A23FBE5DFF830E1DEF844300393002BA0
:1010500000F07F81DEF8401040485EF831100691C4
:101060007B1BDEF8401004EB830303F1100A01310F
:1010700004910399BAF804C005930139DEF84030B1
:10108000CEF8441002EB8C01049A0EEBC30302F07D
:10109000070CCEF840C04FF0000E0793069A9B88CD
:1010A000CDF800E001F0F8F9079A9AF80630918837
:1010B000BAF80420013B0A44DBB2AAF804208AF8FB
:1010C000063013B9059A0123137400283FF4ECADE0
:1010D0007A1B0E2314F822102BE7B9F802301C4AB1
:1010E00003921B011A44002351680093062389F8D8
:1010F00000301A481E4A022301F0CEF90346DBE60F
:10110000D9F80430B9F802E0002B00F0BB81104A96
:10111000039211464FEA0E1E5A8871440332496801
:1011200003EB820201F58050824280F085801368D3
:10113000013318BF4FF6FF7C7ED09388B2F800A031
:10114000634570D0BAF1000F6DD0C9F80420BDE638
:10115000B82700206828002060280020C021002037
:1011600040DB0200E82700208C2800203CDB020046
:1011700048DB0200D827002060270020B74BB84882
:101180001968B84A4FF0000E4FF0070CCDF800E098
:101190000223C9F804E089F800C001F07DF9034694
:1011A0008AE6B14BB9F808101A781B7CB2FA82F2C1
:1011B000B3FA83F352095B0901314FF0000E0120AD
:1011C00089F80A2089F80B30A9F8081089F80CE092
:1011D00089F8000099F80A30A44A53B1A24B03934E
:1011E0009B890021917223B99F4A927B002A40F08B
:1011F000A88199F80B309D4A53B19B4B03939B8B6D
:101200000021D17223B9984B9B7F002B40F05C8169
:101210007A1B002314F8221089F80030A9F8023054
:10122000C9F80430D6E45388033302EB83029042BA
:1012300002D91368013380D1039B73449B89002B2F
:101240007FF428AE0122864801F070F9042203469B
:1012500089F8002030E699F80030072B3AD801A22F
:1012600052F823F0A3110200D5120200D512020099
:10127000B91202008D1202007D1102007D110200E0
:1012800085120200012389F80030A3E7764AB9F8F5
:101290000230039211461B01704A19441068B2F8DB
:1012A00004E0D1F804C048600220C2F800C0908079
:1012B000A1F808E0039A15E76848D9F80430818856
:1012C0005A88B9F802E0114403310222818089F87A
:1012D00000201CE7013B062B3FF649AD01A252F866
:1012E00023F000BFD511020001110200C90E020057
:1012F0007F0E02006F0D0200DB1002007D11020064
:101300000EA8D9F80C2040F8142D0DF122010A93F3
:101310000B930393FFF7B4FB039B00287DD10A23B3
:101320007A1B04EB820202211171C5E5504A127842
:10133000920712D402234F48039300210822FEF79C
:1013400001F9039B0A2B7FF4B7AD7B1B14F8231024
:1013500040E41B68FFDE0F23EBE5DFF818A1BAF8C5
:1013600004200492012A15D83F4A0392CE460593E1
:101370004FF6FF70049B03991B010A461A44CB5C8D
:1013800053B1049B01339BB20122022BAAF8043013
:101390000492EFD10A23CEE75368DAF8009006935F
:1013A00003F58052B9F1000F68D0B9F8021003318B
:1013B00009EB810191422AD20B68013327D08B8837
:1013C000B1F800C083421DD0BCF1000F1AD0BEF8A6
:1013D00006C0CAF800109C458946E3D1002300935B
:1013E000254A1F48012301F057F8BAF80430039A40
:1013F00002EB031200284FF0010393730CBF00238C
:101400000E239FE74B88033301EB8301D2E7059B53
:10141000CAF80030B5E7516814E70A9910488A887D
:10142000A9F80620B1F800E0134A00930123A9F8B7
:1014300008E001F031F80C4BBDF8222003EB02125A
:1014400000284FF001010CBF00230E23917367E7C2
:101450007D1B04EB85040623237425E4602800200B
:10146000C021002040DB0200B8270020D827002040
:1014700068280020AC2700203CDB0200069B03F11B
:10148000080197E7304B03934FEA0E1E73445968E7
:1014900001F1080246E64FF00109039B2B482C4A54
:1014A0004FEA09194B444FF0000A5968CDF800A0E3
:1014B000022300F0F1FF039B03F809A08FE44FF033
:1014C0000009EAE7012190E401231946D9F8042034
:1014D000A9F8023072B3039B03EB011153884968EA
:1014E000033302EB830201F58050824218D2136865
:1014F000013318BF4FF6FF7E03D111E013680133AB
:101500000ED09388B2F800C0734503D0BCF1000F31
:101510007FF41BAE5388033302EB83029042EDD875
:1015200001220023094801F001F80422034689F84A
:101530000020C1E4039B03EB0111496801F108029B
:10154000D1E71946C2E700BFB8270020C02100201C
:1015500048DB02000846FFF7FDBA00BF074A1378D0
:10156000082B09D010B4591C054C117044F8230005
:1015700000205DF8044B70470C207047B427002012
:101580006C2800202DE9F04FAE4F8DB03A78002343
:101590000793089309930A930B9393070DD5AA4CCD
:1015A00004F1200554F8043F07A803B19847AC4262
:1015B000F8D100200DB0BDE8F08F12F00104F8D191
:1015C00042F001023A7000F00BFFA04BA04A1B68EA
:1015D0001668039403F53F513C3103F1080C03F501
:1015E00080500194A6460291043B4FF6FF745A685E
:1015F00098498A4203F1040524D003F5805102E0A2
:10160000994200F0028153F8042F0132F8D04FEADA
:101610000E13914D03220EF1010EEA541FFA8EFEB5
:10162000029A91420CF5805C00F580500B46DED1A9
:10163000874B1E60019B13F0FF0355D10B200DB0AB
:10164000BDE8F08F9A6885498A425AD001318A42B2
:10165000D3D1039A002A00F092807F4A4FEA0E11FC
:1016600002EB01087E4A126804927B4A4FF002099D
:1016700002F801900EF1010E049A7949C8F804208D
:101680001FFA8EFEA8F808904FF002080D60A1F82E
:101690000480DA680132654604D1F0E02A68B2F1CC
:1016A000FF3F16D0AA88B5F80090A24206D0B9F143
:1016B000000F03D0AA68964238BF16466A880332E4
:1016C000904405EB82051FFA88F8A842A1F804802F
:1016D000E4D8B8F1020F0CBF04220822019911438B
:1016E000019103F580519BE7062B4AD0013B0A2B61
:1016F0005AD8DFE803F084598459875987598157AC
:101700008100554A4FEA0E1802EB08094FF0000A13
:1017100002F808A00221C9F80450A9F80810DD68F1
:101720000135624611D11BE09568AE4238BF2E46A6
:1017300055880335294402EB850289B29042A9F805
:1017400008100DD9156801350AD09588B2F800B097
:10175000A54202D0BBF1000FE6D14FF0010AE7E746
:101760003D4A9044019A88F80EA00EF1010E42F015
:1017700002021FFA8EFE019203F5805150E73849AC
:1017800082E73B78304C43F0020323F001033B70C7
:1017900004F1200554F8043F07A803B19847AC4270
:1017A000F8D106E7022305932E4A516F032912D878
:1017B0002D4B5B6C082B0ED8136F0B4403F0030307
:1017C000C3EBC3039B00D0180124D45401319DF80E
:1017D0001430037151673B781A4903F0040202F098
:1017E000FF04002A7FF4E5AE43F0040320460B70AB
:1017F000FFF7B0F92046DDE603230593D4E7002385
:101800000593D1E701230593CEE7154B1B687BB306
:10181000114ADFF858904FEA0E1302EB0308022238
:10182000C8F804500C4DA8F80820EA540EF101083D
:10183000A9F802E01FFA88FE019B43F0010301931F
:10184000EEE600BF6828002068280020C0210020A4
:10185000A8270020DEC0ADDEB8270020FE011EF163
:1018600060280020E827002060270020D8270020DB
:10187000044A02239380012315600393DCE70422CA
:101880002CE700BF6028002060B159B130B583B0AB
:101890000C460DF106010546FFF7F2F820B90A20C3
:1018A00003B030BD05207047BDF80620074B6868BF
:1018B00003EB021301219A890A449A8120606B6824
:1018C00000200C336360A97203B030BDB82700203C
:1018D000D0B110B582B00DF106010446FFF7D0F883
:1018E00010B90A2002B010BDBDF80620094B03EB69
:1018F000021308339A884AB1A17A39B10021013A1A
:101900009A800846A172EDE705207047062002B0D4
:1019100010BD00BFB82700201D4B1B789B0702D4C9
:1019200002231846704740B1CB1C9BB240F2FD32F7
:10193000934205D909231846704705231846704776
:1019400070B4144A167886B9558914892C441C44FD
:10195000A4B2B4F5806F08D2344602EB04122B44D3
:1019600053810023068041800EE0157C094C55B957
:10197000658B248B2C441C44A4B2B4F5806F02D236
:1019800001263446E9E70723184670BC704700BFBC
:1019900068280020B8270020144B1B789B0702D42E
:1019A000022318467047E8B10388022B02D90423AA
:1019B0001846704710B40E4A448802EB03136FF0C8
:1019C00002015A89091BCA4203F108030CD4033AE5
:1019D0000021121B5A800B460180418018465DF899
:1019E000044B70470523DCE70423F7E76828002051
:1019F000B82700207C4A137813F0020F01D102208F
:101A0000704771B12DE9F04F0D8804464FF6FF7015
:101A1000854287B001D0488828B9042007B0BDE8C6
:101A2000F08F0520704708894E68F8B1356815F0C9
:101A3000030504D018E056F83570BF0714D10135FE
:101A4000A842F8D1354606EBC0060020AF8808351D
:101A50003844B54280B2F9D1C51CADB240F2FD3672
:101A6000B54204D90920D9E70320D7E70325DFF8D9
:101A700088E19EF800C0BCF1000F0AD1BEF80A70E0
:101A8000BEF808603E442E44B6B2B6F5806FC0F092
:101A9000A6809EF81060DFF860C14EB9BCF81A70DD
:101AA000BCF818603E442E44B6B2B6F5806F01D340
:101AB0000720B3E701260296B0464FEA08183D44D6
:101AC0000EEB080CADB2ACF80A500E880F89DFF8A7
:101AD0002C910496D1F804C04E884449D9F874A0DA
:101AE00009680596414E01315FFA87FBBAF1030F91
:101AF000CDF80CB00191316060D83D4ED6F844B0BD
:101B0000C7F108018B4559D8D9F87010BDF8148079
:101B1000514401F00301C1EBC101890009EB010E41
:101B2000022509F80150AEF806000198CEF80C0025
:101B3000BDF80800AEF804800025AEF812000AF1E6
:101B4000010A0321BDF810809DF80C00AEF8088052
:101B50008EF81600AEF81410AEF80A508EF8105039
:101B6000C9F874A0D7B1316C0BEB010E0EF0070E63
:101B700006EBCE0E06F138090CEBC50103C90135A1
:101B80000EF108088EE80300CE4514BFC646B646DF
:101B9000AF421749F0D1486C384448643CB1002149
:101BA0001448019D256061600089A172208103F0C5
:101BB000040101F0FF0451B100202FE7C0F57F4080
:101BC000FD30C6442844AEF80A00082026E743F05A
:101BD000040320461370FEF7BDFF20461EE7CDF834
:101BE00008C0E04669E700BF68280020A827002059
:101BF00060270020D8270020B8270020E8270020F1
:101C000052B12DE9F04F5B4D2C78A60785B005D475
:101C1000022005B0BDE8F08F05207047002900F0D4
:101C20009180064608884FF6FF73984204D0B1F8B9
:101C300002C0BCF1000F03D1042005B0BDE8F08F55
:101C40000F89D1F804E067B1DEF8003013F0030328
:101C500004D079E05EF83310890775D101339F42D3
:101C6000F8D1DFF824914449D9F80030D1F87480D4
:101C7000B2F800A0B2F802B00133B8F1030FC9F80E
:101C8000003063D8DFF8F490D9F844200292C7F10D
:101C900008018A425AD8384A3749126F424402F042
:101CA0000302C2EBC20292005118019108F101082F
:101CB0001146314ACDF80C804FF0020802F801803D
:101CC000019A039910814FF000080320A2F804C084
:101CD000A2F806B0D360A2F812A097759082A2F87D
:101CE0000A8082F81080244A5167E7B1D9F8402071
:101CF0000299114401F0070209EBC20209F1380A06
:101D00000EEBC80103C908F1010802F1080C82E8D2
:101D10000300524514BF62464A4647451749EFD172
:101D20004A6C3A444A6436B1002215493360726005
:101D30000B89B272338104F0040303F0FF0683B110
:101D4000002066E7052064E7032062E70D4B03EB04
:101D50000A1308205A89033ACBEB020BA3F80AB006
:101D600057E7304644F004042C70FEF7F3FE30468B
:101D70004FE700BF68280020E827002060270020E8
:101D8000D8270020B8270020A827002050B12DE92F
:101D9000F04F694E3578AF0789B005D4022009B0FD
:101DA000BDE8F08F05207047002900F0B8800A8850
:101DB0004FF6FF739A4201D04B881BB9042009B03B
:101DC000BDE8F08F0F894A68B7B1136813F00303B9
:101DD00005D0A6E052F83340A40740F0A2800133BA
:101DE0009F42F7D1134602EBC70200279C880833B5
:101DF00027449342BFB2F9D10446894638460DF1D3
:101E00001E01FEF70DFE0028C9D14C49DFF83CC188
:101E10000B680193B9F80230B9F80820DCF8748037
:101E20000493019B0292B9F800200392D9F804E0D0
:101E30002268BDF81EA0059203F10109B8F1030F55
:101E4000C1F800906FD83E4A029B516C0191C3F1DA
:101E50000803994267D8DCF87010414401F003018F
:101E6000C1EBC10189000CEB010B08F101034FF03C
:101E700003080CF80180BDF81010ABF80670ABF841
:101E80001480BDF80C70DDF80880ABF80410ABF8D6
:101E900008700599ABF80A000427CBF80C90ABF852
:101EA00012A08BF81680CBF818108BF81070CCF8B5
:101EB00074304346E3B1116C019F0F4407F00707EC
:101EC000844602EBC70702F1380A0EEBCC0103C9C6
:101ED0000CF1010C07F1080887E80300574514BF0F
:101EE0004746174663451649EFD14A6C13444B6485
:101EF0000020144BC4F8009060601A89A07205F0AD
:101F00000403228103F0FF04002B7FF448AF204636
:101F100045F004053570FEF71DFE20463FE705201D
:101F20003DE703203BE7084B03EB0A1308205A89DF
:101F3000033AD71B5F8132E768280020A8270020DA
:101F400060270020D8270020B8270020E82700209D
:101F5000F8B51C4A1378990701D40220F8BD4FF652
:101F6000FF71884201D10420F8BD174D6C6F032C1E
:101F70001ED81649496C08291AD8296F214401F046
:101F80000301C1EBC10189006F18661C4FF0050CFD
:101F900003F0040405F801C04FF0010E2146F8805B
:101FA00087F804E004F0FF046E6719B10020F8BD63
:101FB0000820F8BD43F0040320461370FEF7CAFD65
:101FC0002046F8BD68280020E82700206027002070
:101FD000F8B5174A1378990701D40220F8BD154CBB
:101FE000616F03291AD81448406C082816D8206F4E
:101FF000124D084400F00300C0EBC0002E78013100
:10200000062704F8207061670EB10121297303F0DF
:10201000040101F0FF0419B10020F8BD0820F8BD4B
:1020200043F0040320461370FEF794FD2046F8BDEC
:1020300068280020E827002060270020D8270020FB
:102040002DE9F047304C2478A40702D40220BDE8E3
:10205000F0879446002A3DD0002B3BD0B3F8048093
:10206000B8F1010F48D8DFF8A8908A464FF6FF77FD
:1020700000224FEA081409EB040E19F80440002C62
:1020800032D11C68002C3AD06588DEF80460033534
:1020900004EB850406F58056B44224D22568013548
:1020A00021D0A5882188BD4217D0B1B11C60A58878
:1020B0008542E7D125885545E4D1A268CCF80020B7
:1020C0001A68124BCCF804201B89ACF808300020A9
:1020D000BDE8F0870520BDE8F0876588033504EB8F
:1020E0008504B442DAD31A6008F10104A4B2022CC8
:1020F0009C804FF00108BCD10A20BDE8F087DEF8D3
:10210000046006F10804C5E768280020D8270020ED
:10211000B8270020304B1B789B0701D40220704762
:1021200000293ED0002A3CD02DE9F047B2F804E067
:10213000BEF1010F48D8DFF8A8C04FF6FF764FF088
:1021400000084FEA0E130CEB03071CF80330002BBA
:1021500031D1D2F80090BA46B9F1000F37D0B9F8B2
:102160000230DAF80450033309EB830305F5805598
:102170009D421ED91C6801341BD09C881F88B44224
:1021800011D087B113601C8884429946E4D19B68C2
:102190000B601268114B4A601B890B810020BDE85F
:1021A000F087052070475C88033403EB84039D426D
:1021B000E0D8C2F800800EF1010E1FFA8EF3022B58
:1021C00093804FF0010EBCD10A20BDE8F087DAF809
:1021D000045005F10803C9E768280020D82700202B
:1021E000B8270020304B1B789B0701D40220704792
:1021F00000293ED0002A3CD02DE9F047B2F804E097
:10220000BEF1010F48D8DFF8A8C04FF6FF764FF0B7
:1022100000084FEA0E130CEB03071CF80330002BE9
:1022200031D1D2F80090BA46B9F1000F37D0B9F8E1
:102230000230DAF80450033309EB830305F58055C7
:102240009D421ED91C6801341BD09C881F88B44253
:1022500011D087B113609C8884429946E4D19B6871
:102260000B601268114B4A601B890B810020BDE88E
:10227000F087052070475C88033403EB84039D429C
:10228000E0D8C2F800800EF1010E1FFA8EF3022B87
:1022900093804FF0010EBCD10A20BDE8F087DAF838
:1022A000045005F10803C9E768280020D82700205A
:1022B000B827002020B119B103680B6000207047D7
:1022C0000520704729DF704728DF704770B50C4D37
:1022D000696E042911D02B6E0B44032B88BF043B7D
:1022E000182202FB035406464B1C204600216B6655
:1022F000FDF728F93460012070BD002070BD00BFDB
:102300009C280020F0B5344B1D7815F0060F85B0E1
:1023100060D1324A1C46516E176E45F002031646D4
:102320002370002956D0182303FB07231A7A012AA9
:1023300005D0022A21D19889FFF7C6FF14E0D98A77
:102340009A8A182303FB0763083398685B68521A5C
:10235000B2F5806F4FEA81010844B4BF92B24FF4E6
:1023600080621944FFF7AEFF112805D125F0020560
:1023700045F0040525702DE060B300211022684669
:10238000FDF7E0F8182303FB076303F108011A7A4D
:10239000012A0CD0022A12D18B88CA88ADF80A30E3
:1023A0009B1A0122ADF808308DF8002007E09A8AC8
:1023B000896802910023ADF80C208DF800301823B5
:1023C00003FB07F7F219F3595268019268469B68BC
:1023D0000921984705B0F0BD982800209C280020CE
:1023E0002DE9F0434FF010235D696B1C49D0DFF8F5
:1023F000A48098F800C01CF0010F3FD1DFF890E0F6
:102400002248CEEB0000000934D00EEB00117346D9
:1024100007461A6812B15A6802B1013F10338B4265
:10242000F7D13FB300260022194B9146F4B206E0E3
:10243000596839B10132824203F110030ED0196894
:102440000029F5D1597B494588BFD4B202F1010278
:1024500088BF8946824203F11003F0D1240104EBC6
:102460000E0301361A7B5D60BE42A5EB023544F8CF
:102470000E50D8D14CF0010C88F800C00020BDE807
:10248000F0834FF080535D692D03B0E7D021002029
:10249000C02100209828002030B5214C2578EC0779
:1024A00087B012D5044610B11E48844202D20220E1
:1024B00007B030BD1C488442F9D24AB141B142EA6A
:1024C0000100800706D00620F2E7012007B030BDEA
:1024D0000320EDE72068814201D20520E8E7656826
:1024E00001EB83008542F8D30BB90420E0E705A88F
:1024F000039302920191FFF7E9FE01A90EC908B901
:102500000720D5E7059D2C6005980A9C6C60012486
:10251000C260016183820472FFF7F4FE0020C7E706
:1025200098280020C0210020D021002030B5204C68
:102530002578EC0787B010D5044610B11D488442B9
:1025400002D2022007B030BD1B488442F9D261B1EB
:10255000C1F30B0020B10620F4E7012007B030BD25
:102560002068814203D20520ECE70320EAE7656892
:1025700001EB02308542F6D30AB90420E2E705A850
:10258000039302920191FFF7A1FE01A90EC908B9B8
:102590000720D7E7059D2C6005986B60090B022387
:1025A000818102820372FFF7ADFE0020CAE700BFFF
:1025B00098280020C0210020D021002020B1034B0A
:1025C0005B6E036000207047032070479C2800204A
:1025D0002DE9F04FAB4FAC4C3B78256E990785B099
:1025E0005BD5022865D0032840F08480DFF89CE2A8
:1025F0009EF800300133DBB2032B8EF8003079D91E
:102600004FF000084146102268466E008EF80080A8
:10261000FCF798FF731904EBC303E9461A7A012A01
:1026200003F1080100F0D780022A09D18B88CA88FB
:10263000ADF80A309B1A0122ADF808308DF8002061
:102640003544ED0062196359526801929B6848460F
:1026500008219847636E013B63661BB93A7822F004
:1026600002023A70256E884A0135042D08BF002504
:1026700015667BB16E00731904EBC3031A7A012A45
:102680003CD0022A5AD19889FFF71EFE11284CD05F
:10269000002853D105B0BDE8F08F5A072AD5626EE5
:1026A00003F0FB033B70002AF4D043F002033B70BD
:1026B000E0E76E0006EB050804EBC808734A98F8DB
:1026C00008304FF0000B012B08F1080A82F800B027
:1026D00064D0022B0ED1BAF80630BAF80420BAF84A
:1026E000081001339BB201329942AAF80630AAF8C9
:1026F000042078D0636E002BBCD1CBE7D98A9A8AAC
:10270000731904EBC303083398685B68521AB2F577
:10271000806F4FEA8101B4BF92B24FF480620844E7
:102720001944FFF7CFFD1128B2D13B7823F0020303
:1027300043F004033B7005B0BDE8F08F0021102288
:102740006846FCF7FFFE731904EBC303E9461A7AE7
:10275000012A03F1080118D0022A09D18B88CA88FE
:10276000ADF80A309B1A0122ADF808308DF8002030
:102770003544ED00621963595268019248469B68DE
:102780000921984705B0BDE8F08F9A8A89680291BF
:102790000023ADF80C208DF80030E9E7B8F81410EC
:1027A000B8F81630CA1AB2F5806FB4BF92B24FF4BF
:1027B000806206EB050804EBC80813449BB208F1DD
:1027C000100A9942AAF806302F4A2ED0536E002BD9
:1027D0007FF450AF5EE78A689B8A0292ADF80C30B6
:1027E0008DF800802CE7684659461022FCF7AAFEB7
:1027F00098F80830012BE94630D0022B0BD1BAF8FB
:102800000430BAF80620ADF80A309B1A0122ADF860
:1028100008308DF800203544EB00E218E358526888
:10282000019248469B68002113E710226846002168
:10283000FCF788FE98F80820012AE94608F1080309
:1028400016D0022AE7D19A88DB88ADF80A20D21A7E
:102850000123ADF808208DF80030DCE7DAF8082015
:10286000B8F814300292ADF80C308DF800B0D2E711
:102870009B68BAF8042002930023ADF80C208DF871
:102880000030C8E7982800209C2800200429002058
:10289000C30710D4810710D4420710D4030710D403
:1028A000C10610D4820610D4430610D4C30910D137
:1028B0004FF6FF70704700207047012070470220DC
:1028C000704703207047042070470520704706209A
:1028D00070470720704700BFE8B1E1B110B4048829
:1028E000944228D04488944229D0848894422AD0A3
:1028F000C48894422BD0048994422CD044899442B9
:102900002DD08489944207D0C089904208BF072007
:1029100003D05DF8044B704706202BB10A780123E1
:10292000834013430B70F4E70A780123834022EAC3
:1029300003030B70EDE70020002BF5D0EEE701203C
:10294000002BF1D0EAE70220002BEDD0E6E70320D0
:10295000002BE9D0E2E70420002BE5D0DEE70520DC
:10296000002BE1D0DAE700BF2DE9F0439DF81C40D1
:1029700008B301B3FAB105889D4200F0E4804588B0
:102980009D4200F0E68085889D4200F0E480C58885
:102990009D4200F0E28005899D4200F0E08045897B
:1029A0009D4200F0DE8085899D4206D0C089984214
:1029B00008BF072002D0BDE8F08306200123834032
:1029C000484200F003009042DBB228BF1046002CC2
:1029D0005BD1042A00F2AF8010460D78DC43E4B2EC
:1029E000254001280D7000F0B2804D78022805EADC
:1029F00004054D7000F0AB808D78042805EA0405CD
:102A00008D7040F0B480CD782C40CC70044682426A
:102A1000D1D0C0EB020EAEF10406551EB6082D1A39
:102A20000136022D4FEA860C1AD9002563F30705FB
:102A300063F30F2563F31745084463F31F65ED4304
:102A4000A0F104094FF0000859F8047F08F10108CB
:102A50002F40B04540F8047BF6D3E6456444AAD045
:102A60000D5DDB43D8B200EA0503651CAA420B5595
:102A7000A1D94E5DA31C9A4200EA06044C5578D9B0
:102A8000CA5C1040C854BDE8F083042A57D81046E9
:102A90000C78012844EA03040C7056D04C780228C4
:102AA00044EA03044C7050D08C78042844EA0304B0
:102AB0008C705AD1CC781C43CC700546824252D0DF
:102AC000C0EB020EAEF10406541EB608241A0136FD
:102AD000022C4FEA86081AD94FF0000C63F3070C5A
:102AE00063F30F2C084463F3174C63F31F6CA0F1DE
:102AF0000409002759F8044F01374CEA0404B7428F
:102B000040F8044BF6D3C64545443FF454AF485D06
:102B10006C1C1843A24248557FF64DAF0E5DA81CB1
:102B2000824243EA06050D557FF645AF0A5C134322
:102B30000B54BDE8F08300283FF46BAF4DE705462A
:102B40000028BDD0A4E7002038E70546B6E70446D4
:102B50005DE7012032E7022030E703202EE7042062
:102B60002CE705202AE7BDE8F0830325A6E7032428
:102B70004DE7BDE8F08300BFD0B1038893421DD07C
:102B8000438893421CD0838893421BD0C3889342CE
:102B90001AD00389934219D04389934218D083896C
:102BA000934206D0C389934208BF072302D0002076
:102BB00070470623194101F0010070470023F9E72F
:102BC0000123F7E70223F5E70323F3E70423F1E703
:102BD0000523EFE700293AD012F0010330B402D008
:102BE0000B8883800123950704D500EB43044D88AF
:102BF000A5800133540704D500EB43048D88A580DC
:102C00000133150704D500EB4304CD88A5800133BB
:102C1000D40604D500EB43040D89A5800133950645
:102C200004D500EB43044D89A5800133540604D537
:102C300000EB43048D89A5800133D20904D000EB59
:102C40004302C98991800133036030BC7047016041
:102C5000704700BF4FF0A043044AD3F80435125C1C
:102C600023FA02F000F00100704700BF54DB0200BD
:102C7000044B195C4FF0A04201238B40C2F8083589
:102C8000704700BF54DB0200044B195C4FF0A042B8
:102C900001238B40C2F80C35704700BF54DB0200A3
:102CA0004FF0A0434FF480714FF48022C3F80C150D
:102CB000C3F80C25704700BF4FF0A0434FF480715C
:102CC0004FF48022C3F80815C3F80825704700BFE9
:102CD000074B4FF0A041185CD1F804350122824027
:102CE00022EA03001340C1F80805C1F80C3570470B
:102CF00054DB02004FF0A04303224FF480704FF4E6
:102D00008021C3F82027C3F84827C3F80C05C3F86F
:102D10000C1570474FF0A043044AD3F81035125CED
:102D2000D34003F0010080F00100704750DB020047
:102D30001E2805D0102814BF4FF0FF300120704727
:102D400000207047014B185C704700BF50DB020049
:102D500010B51D4B1A6882B0F2B91C4B1A680AB93B
:102D600002B010BD00221A601B6801934FF080432F
:102D70000222174C0199C3F8082323690122A2708B
:102D8000002BEDD01A6822615B6801209847236907
:102D9000002BF7D102B010BD00221A601B6800930F
:102DA0004FF0804301220A4C0099C3F80823A3681E
:102DB0006270002BD1D01A68A2605B68002098472F
:102DC000A368002BF7D1C8E70001004004010040D0
:102DD0000829002000B1704710B5064CA3683BB12C
:102DE0001A68A2605B6800209847A368002BF7D19F
:102DF00010BD00BF0829002010B582B002A8002332
:102E0000144C00F8013DFDF7CBFD237893B9124A2D
:102E10006360E3601068A36010F00100236114D0C8
:102E20000AF034F920B94FF080430122C3F8182585
:102E300001232370E3689DF8070001330122E3605A
:102E4000A270FDF7D5FD02B010BD072100F006F815
:102E5000E6E700BF0829002000E100E0002810B4E8
:102E600018DB00F1604303F561434901C9B283F8FF
:102E70000013C3B24009800000F1604000F56140DA
:102E800003F01F0201239340C0F8803103605DF816
:102E9000044B7047C3B2044A03F00F0449012244B3
:102EA000C9B21176E6E700BFFCEC00E030B51D4C7E
:102EB00094F8545083B015B1082003B030BD4FF0E2
:102EC000FF33FF220620072123636363A363E363C9
:102ED00023646364A364E36423606360A360E360CA
:102EE00023616361A361E361236284F8503063620C
:102EF000A36284F85230E36284F8533084F851209E
:102F0000FFF7ACFF084B094A1D601B68019301984D
:102F10004FF000430121284684F85410C2F80433CE
:102F200003B030BD1C2900207C61004000600040DF
:102F3000034B93F85400003018BF0120704700BFC6
:102F40001C290020F0B5634C251895F93030002B72
:102F500001DB0820F0BD91F803E09446BEF1000FBC
:102F600056D02368013300F0AD80082600256B1C85
:102F7000584F54F82320013251D0AB1C9E4245D902
:102F800057F8232001324AD0EB1C9E423ED957F815
:102F90002320013243D02B1D9E4237D957F82320DE
:102FA00001323CD06B1D9E4230D957F82370013757
:102FB00035D0AB1D9E4229D954F82320454F01320C
:102FC0002DD0EB1D9E4221D957F82320013226D067
:102FD00005F108039E4219D957F8232001321ED06B
:102FE00005F109039E4211D957F82320013216D06A
:102FF00005F10A039E4209D957F8237001370ED014
:103000000B35AE4202D9E36A013307D00420F0BD8C
:10301000236A01334ED00C260825A8E70B23261877
:10302000DDB244F823C086F83050BEF1000F02D163
:10303000234483F848008B78ABB94A784FF0A04618
:1030400000F5E073920046F82320CB78ABB96AB262
:10305000083A1444097894F8502042EA811284F81E
:1030600050201846F0BD830003F1A043D3F8002799
:1030700022F00202C3F80027E7E76BB29B0003F1DE
:10308000804303F5C0430A78D3F8101521F4473183
:1030900021F44071C3F810151204000202F440310B
:1030A000D3F8104500F4F8520A432243C3F8102520
:1030B0000020F0BD082685F830603346C4F820C0F3
:1030C0003546B5E7002385F83030C4F800C01D460A
:1030D000B1E700BF1C290020F0B42E4D2E1882B09D
:1030E00096F8302053B2072B1CDD2B4493F8483060
:1030F0009B09032B40D0012B0CBF4FF400314FF440
:103100004031800000F1A040D0F8002722F4403286
:10311000C0F80027D0F800370B43C0F8003702B0E2
:10312000F0BC7047072AFAD8980000F1804000F5FB
:10313000C04003F140029200D0F8104592B202F173
:103140008042002744F0010402F5C042C0F8104557
:103150000197019817600029E1D096F9302055F8C1
:103160002220002ADBD001220B4902FA03F3C1F826
:10317000043302B0F0BC70474FF0A043D3F81035D1
:10318000C34013F0010F14BF4FF440314FF400312E
:10319000B7E700BF1C290020006000404FF0A043AB
:1031A000D3F8103523FA00F000F00100704700BF9B
:1031B0002DE9F04786B00026A24B01961A68012A35
:1031C00000F03281A04B1A68012A00F01F819F4B4A
:1031D0001A68012A00F00C819D4B1A68012A00F040
:1031E000F9809C4B1A68012A00F0E6809A4B1A6815
:1031F000012A00F0D380994B1A68012A00F0C080A0
:10320000974B1A68012A00F0AD80964B1A68012A84
:1032100000F09B8016F0FF0F1AD0934F0125002479
:10322000A30003F18043354203F5C0434FEA45054F
:103230000BD0D3F8100557F82420D3F81015C0F39D
:103240000420C1F3014102B190470134082CE7D1B9
:10325000002E02DB06B0BDE8F087844D00224FF05F
:10326000FF33A5F1530702920393814C4FF00008FE
:10327000012614F8011FFF292BD0C9B221F0C0008C
:1032800006AB4FEAD00E03EB0E0201F0070312F873
:103290000CCC06FA03F31CEA030F1AD007EB000C60
:1032A00089099CF930C057F82CC0BCF1000F3CD004
:1032B00003293CD04FEA800E0EF1A04E12F8149C68
:1032C000DEF8002719EA030FC2F3014211D1032AE5
:1032D00036D0AC42CDD1B8F1000FBBD04FF0A043F7
:1032E000019AD3F810359342B4D0029A0193039215
:1032F000BBE7022AEDD1032904D0BCF1000FE8D0CE
:10330000E047E6E74FF44039DEF8002722F4403288
:10331000CEF80027DEF8003708F1010849EA030378
:103320005FFA88F8CEF80037E7E70329D1D10DF12D
:10333000080A1AF80E9049EA03090AF80E90B9E74C
:103340000329DAD14FF40039DEE700221A601B6846
:1033500005934FF0A043059AD3F81035019346F03A
:10336000004657E7434AD2F8042312067FF54DAFD3
:1033700000221A601B680493049B46F0800644E711
:103380003C4AD2F8042351067FF53AAF00221A6076
:103390001B680493049B46F0400631E7354AD2F897
:1033A000042390067FF527AF00221A601B68049360
:1033B000049B46F020061EE72E4AD2F80423D406CA
:1033C0007FF514AF00221A601B680493049B46F03B
:1033D00010060BE7274AD2F8042315077FF501AF43
:1033E00000221A601B680493049B46F00806F8E666
:1033F000204AD2F8042357077FF5EEAE00221A6068
:103400001B680493049B46F00406E5E6194AD2F8CB
:10341000042392077FF5DBAE00221A601B68049339
:10342000049B46F00206D2E61249D1F8041311F0CB
:10343000010105D01E601B680493049B1646C1E67B
:103440000E46BFE600610040046100400861004094
:103450000C610040106100401461004018610040A0
:103460001C6100407C6100401C2900206F29002065
:103470006B29002000600040F8B54479464D640196
:103480002B191B7E0BB10820F8BD2A510B7B0F783E
:10349000012B4FF0A0464FF0010303FA07F394BF4E
:1034A000C6F80C35C6F808350E784FF0A04706F57B
:1034B000E076012347F826304E78FF2E62D006F5DD
:1034C000E07EB3404FF0030CC7F80C3547F82EC030
:1034D0008F78FF2F53D007F5E07E4FF0A0434FF0D9
:1034E000000C43F82EC0CB78FF2B0FD04FF0010E0D
:1034F0004FF0A04C0EFA03F3CCF80835CB7803F567
:10350000E0734FF0030E4CF823E0CB7890F805E021
:1035100005EB4E1E8EF81A30036891F800E0C3F8F0
:1035200008E5C3F80C65C3F810758E68C3F8246508
:103530004E7B0F7B003618BF0126022F25D0032FAC
:103540001AD0012F01D146F00206C3F854654E7916
:10355000C3F8C065E2B140260722C3F80463C3F88C
:10356000002590F904000979FFF778FC2C4401222A
:10357000002022766076F8BD46F00606E5E74FF0BB
:10358000FF37B0E74FF0FF36A2E746F00406DCE76E
:103590000722C3F80025E9E774290020F0B5447933
:1035A000374F64013D1983B06E7E9DF820E01835D9
:1035B00016B1112003B0F0BD3E590EB101266E7058
:1035C00007EB040C0CF118069CF81D50CCF8081001
:1035D0008CF80C20CCF810308CF814E09CF81AC051
:1035E00005F0FE056FF34105BCF1FF0F757106D0C4
:1035F00001254FF0A04605FA0CF5C6F80C550568F4
:1036000051B101F06040B0F1005F05D03C440023AF
:103610001020637603B0F0BD23B103F06040B0F139
:10362000005FF3D10020C5F84415C5F84825C5F85A
:103630003435C5F838E5C5F81801D5F818310193C7
:103640000123019AC5F85005C5F840052B613B5987
:103650001BB14023C5F80433ACE7D5F81831002B73
:10366000FBD03C44A37EFF2B08D001224FF0A041A9
:1036700002FA03F3C1F8083500209BE7002099E720
:1036800074290020104BD3F81821DAB100B50021BD
:103690000E4AC3F8181183B0917ED3F81831019304
:1036A000FF29019B05D001234FF0A0408B40C0F8BB
:1036B000083500235376137105481368984703B003
:1036C0005DF804FB704700BF003000407429002003
:1036D00078290020F0B50479724E6401331987B05F
:1036E000DD7E183315B1082007B0F0BD4D7F1D7188
:1036F0000D686B1C0BD04FF0A0470123AB40C7F8FF
:1037000008350B6803F5E073032547F823504B6831
:103710005F1C06D003F5E0734FF0A045002745F885
:103720002370037906EB43131B7F002B4DD00368F6
:103730008D69C3F824550F7D4B7D05683B43C5F863
:103740006C3503680F684D68C3F80C75C3F81455E1
:103750000B7D012B00F09B80331905465A600B69E5
:1037600050483351EAB12B79097F2A6800EB4310A6
:10377000037F002B65D1C2F81C31D2F81C712A6876
:103780000197019FC2F84431D2F844212B68464882
:103790000092009AC3F80403286840F30730FFF74B
:1037A0005DFB2B792A6806EB43131B7F002B44D06B
:1037B0000823C2F80035344400200121E075A075CB
:1037C0002076A076E17607B0F0BD05688F69C5F870
:1037D000247591F814E04D7D07684EEA0505C7F899
:1037E0006C550568D1F800E04F68C5F81475C5F848
:1037F0000CE50D7D012DAFD18D686F1C05D005F551
:10380000E0754FF0A04747F82530CB685D1C0DD020
:1038100001254FF0A04705FA03F3C7F80835CB6838
:1038200003F5E073032547F82350CB6805688F68DC
:10383000C5F80835C5F810758EE70423C2F80035C1
:10384000B9E70023C2F81031D2F810712A68059741
:10385000059FC2F82031D2F820712A680497049F8E
:10386000C2F82431D2F824712A680397039FC2F862
:103870004431D2F844212B6802920C48029AC3F8D2
:103880000403286840F30730FFF7E8FA89E78B68FC
:103890005D1CBAD003F5E0734FF0A045002745F852
:1038A0002370B2E794290020800002001003020078
:1038B000F0B503793D4A04685B01D118097F0029FE
:1038C0006DD00021C4F80015D118384C4968B1B149
:1038D000017904EB4114217F002963D10168344C44
:1038E000C1F808430168334E090B4CB26409203417
:1038F00001F01F01012505FA01F146F824100179B4
:10390000076802EB4111D7F80C65097FD7F8145509
:103910004FF0FF3EA9B3D7F80815D7F81045C7F800
:103920000CE5C7F814E50068C0F808E5C0F810E534
:10393000771C06D006F5E0764FF0A040022740F84D
:1039400026706E1C06D005F5E0754FF0A0400226EB
:1039500040F82560651C06D004F5E0744FF0A040E7
:10396000022540F82450481C06D001F5E0714FF0C4
:10397000A040022440F8214013440022DA765A6025
:10398000F0BDD7F80815D7F81045C7F814E5C7F803
:103990000CE50068C0F808E5C0F810E5C8E7C4F811
:1039A000001591E70168044C9AE700BF94290020B4
:1039B0008402020000E100E0100302002DE9F04162
:1039C00003795A4D5B01EC1886B0247F44B101F0B5
:1039D0006044B4F1005F03D0102006B0BDE8F08170
:1039E0002B44DFF848E19F7D1FB1112006B0BDE8F0
:1039F000F08199609A759F82067976010EEB060137
:103A00000B7F2BBB0268C2F81C31D2F81C41026844
:103A100005940124059F94600468D1F808C0C4F897
:103A20001C31D4F81C310493049B8F8A8B8AD1F803
:103A300004E0BFB201331CF807709BB28B82C4F85C
:103A40001C75BEF1000F33D0002006B0BDE8F08138
:103A500003688A68C3F82071D3F820410368029490
:103A6000029CC3F85871D3F85841036801948C7DC7
:103A7000019FC3F84425C3F84845036801229A60B2
:103A80004B68002BE0D1026801E0002B4CD1D2F84A
:103A90002011D2F85831003318BF01230029F4D087
:103AA000002B0CBF00200F20AB1900229A7594E761
:103AB0008F7D8B8A01F110029BB2BB4226D2046833
:103AC00004E093889BB2B3F5807F05D0D4F81C3115
:103AD00001F11002002BF4D001F1100293889BB287
:103AE000B3F5807FE5D0C4F81CE1D4F81C31039312
:103AF000039BB2F8048093881FFA88F801331CF8FE
:103B000008809BB29380C4F81C85D2E793889BB24F
:103B1000B3F5807F08D00268D2F81C31002BFBD0AF
:103B20000123D3600020BFE70F20BDE794290020C8
:103B30000279044B03EB4213987D003018BF01203B
:103B4000704700BF94290020F0B59B4C237F8FB0B5
:103B5000002B75D1994AD2F80413890548D4974BA4
:103B6000D3F80423520704D5D3F80821002A40F0E3
:103B7000CA80924BD3F81C21C2B1A28AA07D8E4983
:103B800092B282424FF00002C3F81C2180F0A9805B
:103B9000D3F81C210692069A888A8A8A8D6880B298
:103BA0000132285C92B28A82C3F81C05834BD3F899
:103BB0004421DAB10022C3F84421D3F84411A27E93
:103BC00004910499002A40F08980E27D7A4B6AB121
:103BD0000022587ED968DA7501228DF830000B91E9
:103BE0008DF828200AA893E8060090470FB0F0BD92
:103BF000D2F824110029B2D0C2F82431D2F824110D
:103C0000A37E07914FF401710798C2F808130BB90E
:103C100001235360694A02238DF82830D2F880349A
:103C2000C2F88034E07DE2680D9300238DF8300007
:103C3000E375237621680B9263680AA8984798E792
:103C40005E4BD3F82421002A40F09380D3F8101162
:103C500061B1C3F81021D3F8101103910399D3F87F
:103C60003C15E07DC9B2884200F0AA80534BD3F8DE
:103C70004421B2B10022C3F84421D3F84411E07DBD
:103C8000019101994C4960B1D3F83C35C8688DF871
:103C900030300123CA750B908DF828300AA80AC964
:103CA0009847464BD3F82021002A9FD00022C3F822
:103CB0002021D3F82011A07D009100993E490028D1
:103CC00094D0D3F84C058B688DF830008A750B932F
:103CD0008DF828200AC90AA8984787E701221A60A8
:103CE00073E7D3F81C310593059B00283FF45EAFC2
:103CF0008B688DF830008A750B938DF828200AC9DF
:103D00000AA8984752E7E17D2B4A002970D000218C
:103D1000C3F80811D3F8081108910899D068517EAA
:103D2000D3F818354354537ED17D0133DBB253763B
:103D3000627E214B8A427FF41CAF1A7E002A6DD12D
:103D40009B7E13B91D4B01225A601C4AE0686368D0
:103D50004FF40171C2F80813627E8DF830200025FF
:103D600001220B902168E5758DF828200AA8984754
:103D7000FFE60022C3F82421D3F824110291022186
:103D80008DF828100299D3F88014C3F880140D918F
:103D9000D3F83C15E368E27522768DF830100B936A
:103DA000216863680AA89847044BD3F84421002A85
:103DB0003FF477AF5EE700BF942900200020004069
:103DC000217EF1B1D3F80072E17527F02001E66899
:103DD0002569C3F8001201238DF830008DF82830D2
:103DE000227621680B96E56063680AA898473DE74C
:103DF000C3F80811D3F808210992099AD3F81835A5
:103E000096E7E268E17501238DF830008DF82830DF
:103E10000B9294E80A000AA8984727E7DE685D7EBF
:103E20001869DA7501210022D8601A765A768DF861
:103E300028100B968DF8305093E806000AA890479A
:103E400097E600BF0220FEF743BF00BF2DE9F04711
:103E50000D460646FEF76CFF0128044601D9BDE871
:103E6000F087012D1AD003D3022D27D0BDE8F087AB
:103E70001D48FCF757FD1D491D4A04EB44030B4444
:103E8000155D9B789D42EAD1002DE8D0194B1B6847
:103E9000002BE4D02846BDE8F0471847DFF84C80F7
:103EA00047003B1808EB030218F8035053785BB93E
:103EB000274447440E4BBA781A55E5E70B4B00EB05
:103EC00040041C446578DFE70B4BDFF8309019683D
:103ED000054801EB810149004A46FCF7CBFC00286C
:103EE000E6D189F80060E3E7EC290020302A0020C1
:103EF000E0290020E8290020E4290020D42900201E
:103F00007F4B1B68DB0700D4704770B57D4E7E4D3C
:103F100033782C789BB9172C10D8DFE804F0666B47
:103F20006B879CB0C2AA24152415823131313131FE
:103F300051565ECF0C0CFEF7BFFE2C7070BD0023F7
:103F40003370FEF7ADFEE6E7012318463370FEF747
:103F5000BFFE6E4B6E481968002201EB8101BDE87F
:103F60007040FCF787BC012318463370FEF7B0FEA3
:103F7000664B674819680022BDE87040FCF77ABCC0
:103F80006448FCF7CFFCD4F11104024600F0A18094
:103F9000002840F09E80012C0DD0C8255E4B5B4967
:103FA0005C48096805FB04F4A3FB04435B0901FBBF
:103FB00003F1FCF75FFC0220BDE87040FEF758BE3D
:103FC000FEF76EFE12232B7070BDFEF769FE002017
:103FD000FEF74EFE13232B7070BDFEF761FE01202D
:103FE000FEF746FE14232B7070BDFEF759FE00232A
:103FF0002B7070BD0020FEF72DFE002879D0002028
:10400000FEF742FE022C0CBF122328233F4A2C70DD
:1040100011683F4801FB03F10022BDE87040FCF746
:1040200029BCFEF749FE0C232B7070BD0020FEF763
:1040300011FE002856D00020FEF726FE0822334B42
:104040003348196803232B7001FB02F1BDE870406F
:104050000022FCF70FBC0020FEF7FCFD00283DD03D
:104060000020FEF711FE2822284B29481968042356
:10407000E9E70020FEF7FCFD07232B7070BD002050
:10408000FEF7E8FD90B30020FEF7FEFD1F4B204831
:10409000196805232B7049000022BDE87040FCF729
:1040A000E9BB0020FEF714FE184B194819680623D7
:1040B0002B700022BDE87040FCF7DCBBFEF7F0FD82
:1040C0000020FEF7D5FD0120FEF7D2FD15232B7051
:1040D00070BD0220BDE87040FEF7D6BDFEF7C8FDFA
:1040E0000422C1E7FEF7C4FD0222A8E7FEF7C0FDE7
:1040F000CCE7FEF7BDFD022C0CBF0223042385E7AD
:10410000D8290020DC2900200C2A0020E4290020E6
:10411000B4290020102A00201F85EB5110B500782B
:10412000FEF706FE012800D910BD074B00EB40004A
:10413000184440780028F7D0044B1B68002BF3D0BC
:10414000BDE81040184700BF302A0020E8290020B1
:10415000FEF7E0BD70B5964B1A6812F0010202D16D
:104160001646304670BD934D2B780446E3B9172CA4
:1041700000F21C81DFE814F0E600ED00ED005400D1
:104180006B008200970046002C001D002C001D00D3
:10419000A500AC00AC00AC00AC00AC00CB00D20081
:1041A000DC0039004E004E0000232B70FEF778FD36
:1041B000DDE7012318462B70FEF78AFD7E4B7F4812
:1041C0001968002201EB8101BDE87040FCF752BB89
:1041D000012318462B70FEF77BFD774B7748196853
:1041E0000022BDE87040FCF745BBFEF759FD0020FA
:1041F000FEF73EFD0120FEF73BFD714B15221A70C4
:104200000026AEE70020FEF733FD6D4B07221A7043
:104210000026A6E7FEF750FD694B00261C70A0E7BC
:104220000020FEF717FD002800F0BC800020FEF7FC
:104230002BFD08226049624B0968604803241C700A
:1042400001FB02F1BDE870400022FCF713BB002027
:10425000FEF700FD002800F09E800020FEF714FD10
:1042600028225549564B0968544804241C7001FB08
:1042700002F1BDE870400022FCF7FCBA0020FEF716
:10428000E9FC002800F08B800020FEF7FDFC4A4A84
:104290004B4B1168494805241C7049000022BDE8B9
:1042A0007040FCF7E7BA0020FEF712FD444B424A8B
:1042B0004248116806241C700022BDE87040FCF7DB
:1042C000D9BAFEF7F9FC3E4B0C221A70002648E7DB
:1042D0003C48FCF727FBD4F11104064650D00028D7
:1042E0004ED1012C0FD0C825374B334935480968CA
:1042F00005FB04F4A3FB04235B09324601FB03F135
:10430000FCF7B8FA06460220FEF7B2FC29E7FEF7F2
:10431000C7FC2B4B12221A70002622E7FEF7C0FCC6
:104320000020FEF7A5FC264B13221A70002618E782
:10433000FEF7B6FC0120FEF79BFC214B14221A70FD
:1043400000260EE7FEF7ACFC1D4B00221A70164645
:1043500007E70020FEF77EFCB0B10020FEF794FCDA
:10436000022C0CBF122328231349154A0968147024
:10437000124801FB03F10022BDE87040FCF77ABA55
:104380000220FEF781FCECE6FEF772FC022C0CBF6B
:1043900002230423E8E7FEF76BFC042261E7FEF743
:1043A00067FC74E7FEF764FC022243E70026D8E6C8
:1043B000D8290020DC290020E4290020B42900208D
:1043C0000C2A0020102A00201F85EB5170B51F4DCC
:1043D0001F4E204B2860044610F0020082B031606E
:1043E0001A600ED01C4B1D480E260F254A081E7061
:1043F0000221DD70FBF758FDA0B1E3071DD402B028
:1044000070BDE20719D41648164A0021FCF720FABD
:104410000028F4D11448154A012102B0BDE87040CB
:10442000FCF716BAFBF798FD0028E6D10146104AC2
:104430001048FCF70DFAE10703D50190FEF75AFC8E
:1044400001980028DFD002B070BD00BFD82900203D
:10445000E4290020E8290020302A002060DB020047
:104460005CDB0200013F020070DB0200453E0200FF
:104470001D41020058DB0200012801D907207047C6
:10448000012A0BD0012917D00CD30229F6D10D4BEC
:1044900000EB4000034400205A707047012908D007
:1044A0000022EFE7074B00EB4000034400209A7026
:1044B000704700F10E02D2B200EB40030149002028
:1044C000CA547047302A002008B5FEF73BFC800034
:1044D00000F1A0430020D3F8002722F44032C3F8B3
:1044E0000027D3F8002742F44032C3F8002708BD64
:1044F00008B5FEF727FC800000F1A0430020D3F8A8
:10450000002722F44032C3F80027D3F80027C3F86D
:10451000002708BD10B50388102B08D0112B05D13A
:10452000264B18680138186038B110BD10BD234CF7
:10453000206880B10130206010BD02210122FFF708
:104540009BFF48B3072827D01D4B1B68002BECD0DE
:10455000BDE81040184701460122FFF78DFF48B122
:10456000072807D0164B1B6803B198472068013015
:10457000206010BD012002210722FFF77DFF08B156
:104580000728EFD1002002210422FFF775FF002841
:10459000ECD00728E6D1E9E7012002210722FFF746
:1045A0006BFF08B10728CFD1002001460A22FFF790
:1045B00063FF0028B9D00728C6D110BD3C2A0020CF
:1045C000382A00201A4B10B50C46186029B101207A
:1045D000FFF7BEFD30B102232370164B186848B1B7
:1045E000002010BDFFF7B4FDF8B9124B2070186819
:1045F0000028F5D102210122FFF73EFF10B1072864
:1046000000D010BD012002210722FFF735FF08B1BD
:104610000728F6D1002001460A22FFF72DFF0028C7
:10462000DED0072808BF0020EBE70B232370D4E778
:10463000382A00203C2A00206CDF70476DDF70476D
:1046400076DF704778DF70477ADF70477CDF70472E
:10465000A8DF7047ADDF704767DF704732DF704714
:104660003EDF704700210A460148FBF78BBC00BFC4
:10467000EFBEADDEFBF796BC00B5002183B0012292
:104680000948FAF75FFF0123002100930A46074813
:10469000054BFEF783FF10B903B05DF804FB03B0D0
:1046A0005DF804EBFBF77EBC402A00207CDB0200B7
:1046B00010B50446FDF78CFF2046BDE8104001F020
:1046C0003DBF00BF30B5044685B002F09DF92046DD
:1046D00006F068F82146414808F0F2F8204602F05A
:1046E00037F92046FFF716FF23883B2B22D010D93D
:1046F000552B43D0562B1DD0512B05D1A279A37B2E
:1047000012B1043B022B4ED9204601F0D3FE05B076
:1047100030BD102B3AD0112B18D0022BF4D1304BD6
:1047200000211888FFF798FF05460028ECD0FBF71A
:1047300039FC1BE0A0881321FFF782FF0546002803
:10474000F5D1204601F0B6FE05B030BD0320254965
:10475000FBF75EF90020FFF7FDFC0546002839D184
:104760001F4B4FF6FF721A80002DCDD02846FBF765
:1047700019FC204601F09EFE05B030BDA08817212F
:10478000FFF768FF05460028BED0D0E70320164992
:10479000FBF73EF90420FFF7DDFC0546B8B9104BE6
:1047A000A2881A80E0E7022A0CBF022201224FF4FD
:1047B000C173A0888DF800206946ADF80430FFF77A
:1047C00047FF054600289FD0FBF7ECFBCCE7FBF743
:1047D000E9FBE4E7FBF7E6FBC2E700BF442A002061
:1047E0009E2100209CDB020084DB020010B50378D0
:1047F00084B004460E2B0FD8DFE803F0220E270EFC
:104800003315100E1E0E1008100E3B00032001F091
:104810000FFD08B1FBF7C6FB04B010BD806800288F
:10482000F8D104B010BDFDF7D3FB0E280346F3D03A
:1048300033F00803F0D0EDE700690028ECD0E9E799
:1048400003200D49FBF7E4F8E6E7408802F062F93F
:10485000217A63880091024608490320FBF796F904
:10486000DAE704A9002301F8043D408806F01AF8AD
:10487000D2E706F019F8CFE7B8DB0200ECDB020064
:104880000878022805D0032802D10449FBF7C0B8F4
:10489000704703200249FBF7BBB800BF60DC020091
:1048A00030DC020008B5037803B108BD054B3B219D
:1048B0001888FFF7C5FE0028F7D0BDE80840FBF7D1
:1048C00071BB00BF9E21002008B548B1032806D166
:1048D0001449FBF79DF80220FFF73CFCA0B908BD86
:1048E000FFF738FCA0B94FF0A0431022C3F80C2505
:1048F0000020FFF7E9FD88B90120FFF7F9FD50B965
:10490000FFF7ACFE0028EAD0BDE80840FBF74ABB41
:10491000FBF748FBE7E7FBF745FBF1E7FBF742FB5B
:10492000EAE700BF94DC02000E4B1B7803B9704726
:1049300010B50D4B0D4A59699C695161243393E8B8
:10494000030002F1240383E803000948946108F09E
:104950002BFA30F0080300D110BDBDE81040FBF782
:1049600021BB00BFBC2B0020C02C0020882D0020C4
:10497000442A0020042808B516D00A2813D10020A4
:10498000FFF7E8FBE0B94FF0A0431022C3F80C2575
:104990000020FFF799FDC8B90120FFF7A9FD90B9E4
:1049A000FFF75CFE40B908BD0A4B13211888FFF7DA
:1049B00047FE30F00803F6D0BDE80840FBF7F2BA36
:1049C000FBF7F0FADFE7FBF7EDFAE9E7FBF7EAFAC6
:1049D000E2E700BF9E2100202DE9F04FBF4B1B787E
:1049E00087B0002B00F00C824FF000092021DFF887
:1049F000FC82DFF824A303918C460A46CB464F463F
:104A00004E464D4618F805402C2C00F0C8802A2C44
:104A100000F0C580701E0B2808D8DFE800F0730690
:104A2000B2B0A2A007079107078322460137FFB261
:104A30000135EDB29D4201D20D2EE3D9A84BA2F172
:104A400041004129B0FA80F04FEA5010187000F090
:104A5000E780A1F14403022B154640F2F380A1F157
:104A600052030C46B3FA83F35B099E4A1370039B0F
:104A70004E2B00F0DE80532B0CBFCBF10003002344
:104A8000BCF1450FCAF8143000F0D980BCF1570FC3
:104A90000CBFC9F100030023CAF818301320924953
:104AA000924AFBF70DF89AF82A109AF828209AF8FB
:104AB0002930009113208E49FBF768F89AF82710E7
:104AC0009AF82630BAF82420009113208949FBF780
:104AD0005DF82A4613208849FAF7F2FF2246132090
:104AE0008649FAF7EDFFDAF8142085491320FAF722
:104AF000E7FFDAF818208349132007B0BDE8F04F2C
:104B0000FAF7DEBF002F4ED1A4F14100052800F2D4
:104B1000A680A4F13700C0B200EB800040008AF804
:104B2000280083E77849CDF814C013200492FAF7DF
:104B30006FFF6A4B049A1B78DDF814C0214675E7B5
:104B4000002F4ED1A4F1410005287ED8A4F13700F2
:104B5000C0B200EB800040008AF8270066E7A44658
:104B600064E787BBA4F14100052800F28D80A4F121
:104B700037095FFA89F9654800FB09F956E703949C
:104B800054E7002F3DD1A4F14100052871D8A4F1CC
:104B9000370B5FFA8BFB5E4800FB0BFB46E70136E9
:104BA000F6B2002744E7012F40F08780A4F14100CE
:104BB000052800F2ED80373CE4B29AF82800204442
:104BC0008AF8280032E7012F69D1A4F141000528B5
:104BD00000F2D480A4F13700C0B24D4C04FB009920
:104BE00024E7012F40F09A80A4F14100052800F24B
:104BF000E180373CE4B29AF8270020448AF8270085
:104C000014E7012F40F09A80A4F14100052800F23A
:104C1000AB80A4F13700C0B23E4C04FB00BB05E7FB
:104C20001546304A01231370039B4E2B0C467FF42C
:104C300022AFBCF1450FCAF814B07FF427AFCAF811
:104C400018902BE70C4601230FE7A4F1610005281B
:104C500094BFA4F15700A4F13000C0B279E7A4F1E9
:104C60006100052894BFA4F15700A4F13000C0B240
:104C700052E7A4F16100052894BFA4F1570BA4F1F9
:104C8000300B5FFA8BFB86E7A4F16100052894BF27
:104C9000A4F15709A4F130095FFA89F96BE7022FF3
:104CA00040F0F281A4F14100052879D8A4F1370041
:104CB000C0B2184C04FB0099B8E6022F40F0908176
:104CC000A4F1410005287DD8A4F13700C0B200EB63
:104CD000800040008AF82900A8E600BFB42D00201B
:104CE000BC2B0020EC2C0020BCDC0200C02B0020E0
:104CF000C4DC0200DCDC0200F4DC020004DD0200A3
:104D000014DD020024DD0200B0DC020000CA9A3B80
:104D100000E1F50580969800C02C0020022F40F09D
:104D20001981A4F14100052856D8A4F13700C0B27A
:104D300000EB800040008AF8260077E6022F6AD157
:104D4000A4F14100052851D8A4F13700C0B2BE4CEF
:104D5000DFF8FCE204FB00F08EFB00E40444C01723
:104D6000C0EB6410834461E6A4F16100052894BFA0
:104D7000A4F15700A4F13000C0B24DE7A4F16100E6
:104D8000052894BFA4F15700A4F13000C0B224E775
:104D9000A4F16100052894BF573C303CE4B20CE715
:104DA000A4F16100052894BFA4F15700A4F13000DC
